{
  "contractName": "betDapp",
  "abi": [
    {
      "inputs": [],
      "payable": true,
      "stateMutability": "payable",
      "type": "constructor"
    },
    {
      "anonymous": false,
      "inputs": [
        {
          "indexed": true,
          "internalType": "address",
          "name": "oldOwner",
          "type": "address"
        },
        {
          "indexed": true,
          "internalType": "address",
          "name": "newOwner",
          "type": "address"
        }
      ],
      "name": "OwnerSet",
      "type": "event"
    },
    {
      "anonymous": false,
      "inputs": [
        {
          "indexed": false,
          "internalType": "string",
          "name": "conf",
          "type": "string"
        },
        {
          "indexed": false,
          "internalType": "bytes32",
          "name": "ID",
          "type": "bytes32"
        },
        {
          "indexed": false,
          "internalType": "uint256",
          "name": "newBalance",
          "type": "uint256"
        }
      ],
      "name": "betConfirmation",
      "type": "event"
    },
    {
      "anonymous": false,
      "inputs": [
        {
          "indexed": false,
          "internalType": "bytes32",
          "name": "queryID",
          "type": "bytes32"
        },
        {
          "indexed": false,
          "internalType": "string",
          "name": "res",
          "type": "string"
        },
        {
          "indexed": false,
          "internalType": "uint256",
          "name": "newBalance",
          "type": "uint256"
        }
      ],
      "name": "betResult",
      "type": "event"
    },
    {
      "anonymous": false,
      "inputs": [
        {
          "indexed": false,
          "internalType": "address",
          "name": "whoCalled",
          "type": "address"
        }
      ],
      "name": "gamblerAddres",
      "type": "event"
    },
    {
      "anonymous": false,
      "inputs": [
        {
          "indexed": false,
          "internalType": "uint256",
          "name": "randomNumber",
          "type": "uint256"
        }
      ],
      "name": "generatedRandomNumber",
      "type": "event"
    },
    {
      "anonymous": false,
      "inputs": [
        {
          "indexed": false,
          "internalType": "string",
          "name": "loadAmount",
          "type": "string"
        },
        {
          "indexed": false,
          "internalType": "uint256",
          "name": "newBalance",
          "type": "uint256"
        }
      ],
      "name": "load",
      "type": "event"
    },
    {
      "anonymous": false,
      "inputs": [
        {
          "indexed": false,
          "internalType": "string",
          "name": "description",
          "type": "string"
        }
      ],
      "name": "logNewProvableQuery",
      "type": "event"
    },
    {
      "anonymous": false,
      "inputs": [
        {
          "indexed": false,
          "internalType": "string",
          "name": "message",
          "type": "string"
        }
      ],
      "name": "userWithdrawal",
      "type": "event"
    },
    {
      "constant": true,
      "inputs": [],
      "name": "balance",
      "outputs": [
        {
          "internalType": "uint256",
          "name": "",
          "type": "uint256"
        }
      ],
      "payable": false,
      "stateMutability": "view",
      "type": "function"
    },
    {
      "constant": false,
      "inputs": [
        {
          "internalType": "address",
          "name": "newOwner",
          "type": "address"
        }
      ],
      "name": "changeOwner",
      "outputs": [],
      "payable": false,
      "stateMutability": "nonpayable",
      "type": "function"
    },
    {
      "constant": true,
      "inputs": [],
      "name": "getOwner",
      "outputs": [
        {
          "internalType": "address",
          "name": "",
          "type": "address"
        }
      ],
      "payable": false,
      "stateMutability": "view",
      "type": "function"
    },
    {
      "constant": true,
      "inputs": [
        {
          "internalType": "address",
          "name": "",
          "type": "address"
        }
      ],
      "name": "waiting",
      "outputs": [
        {
          "internalType": "bool",
          "name": "",
          "type": "bool"
        }
      ],
      "payable": false,
      "stateMutability": "view",
      "type": "function"
    },
    {
      "constant": false,
      "inputs": [
        {
          "internalType": "bytes32",
          "name": "_myid",
          "type": "bytes32"
        },
        {
          "internalType": "string",
          "name": "_result",
          "type": "string"
        }
      ],
      "name": "__callback",
      "outputs": [],
      "payable": false,
      "stateMutability": "nonpayable",
      "type": "function"
    },
    {
      "constant": false,
      "inputs": [
        {
          "internalType": "bytes32",
          "name": "_queryId",
          "type": "bytes32"
        },
        {
          "internalType": "string",
          "name": "_result",
          "type": "string"
        },
        {
          "internalType": "bytes",
          "name": "_proof",
          "type": "bytes"
        }
      ],
      "name": "__callback",
      "outputs": [],
      "payable": false,
      "stateMutability": "nonpayable",
      "type": "function"
    },
    {
      "constant": false,
      "inputs": [],
      "name": "random",
      "outputs": [
        {
          "internalType": "bytes32",
          "name": "",
          "type": "bytes32"
        }
      ],
      "payable": true,
      "stateMutability": "payable",
      "type": "function"
    },
    {
      "constant": false,
      "inputs": [
        {
          "internalType": "address payable",
          "name": "whoCalled",
          "type": "address"
        },
        {
          "internalType": "uint256",
          "name": "whatAmount",
          "type": "uint256"
        }
      ],
      "name": "testRandom",
      "outputs": [
        {
          "internalType": "bytes32",
          "name": "",
          "type": "bytes32"
        }
      ],
      "payable": true,
      "stateMutability": "payable",
      "type": "function"
    },
    {
      "constant": true,
      "inputs": [],
      "name": "getBalance",
      "outputs": [
        {
          "internalType": "uint256",
          "name": "",
          "type": "uint256"
        }
      ],
      "payable": false,
      "stateMutability": "view",
      "type": "function"
    },
    {
      "constant": true,
      "inputs": [],
      "name": "getCommitted",
      "outputs": [
        {
          "internalType": "uint256",
          "name": "",
          "type": "uint256"
        }
      ],
      "payable": false,
      "stateMutability": "view",
      "type": "function"
    },
    {
      "constant": true,
      "inputs": [],
      "name": "getUserBalance",
      "outputs": [
        {
          "internalType": "uint256",
          "name": "",
          "type": "uint256"
        }
      ],
      "payable": false,
      "stateMutability": "view",
      "type": "function"
    },
    {
      "constant": false,
      "inputs": [],
      "name": "withdrawUserBalance",
      "outputs": [],
      "payable": false,
      "stateMutability": "nonpayable",
      "type": "function"
    },
    {
      "constant": false,
      "inputs": [],
      "name": "flip",
      "outputs": [],
      "payable": true,
      "stateMutability": "payable",
      "type": "function"
    },
    {
      "constant": false,
      "inputs": [],
      "name": "loadContract",
      "outputs": [],
      "payable": true,
      "stateMutability": "payable",
      "type": "function"
    }
  ],
  "bytecode": "0x6080604052600060065562030d40600955336000806101000a81548173ffffffffffffffffffffffffffffffffffffffff021916908373ffffffffffffffffffffffffffffffffffffffff1602179055506000809054906101000a900473ffffffffffffffffffffffffffffffffffffffff1673ffffffffffffffffffffffffffffffffffffffff16600073ffffffffffffffffffffffffffffffffffffffff167f342827c97908e5e2f71151c08502a66d44b6f758e3ac2f1de95f02eb95f0a73560405160405180910390a334600760008282540192505081905550620000ec6200016460201b60201c565b7fc6a90f9711f675cf39da5b255f163fc88427dd82b4253052e9a5db243be05d3760075460405180806020018381526020018281038252600f8152602001807f436f6e7472616374204c6f6164656400000000000000000000000000000000008152506020019250505060405180910390a1620001dd565b3073ffffffffffffffffffffffffffffffffffffffff16316007546008540114620001db576040517f08c379a000000000000000000000000000000000000000000000000000000000815260040180806020018281038252603f81526020018062003b5b603f913960400191505060405180910390fd5b565b61396e80620001ed6000396000f3fe6080604052600436106100dd5760003560e01c8063a6f9dae11161007f578063b7013dc111610059578063b7013dc1146104d0578063bad983af146104fb578063cde4efa914610512578063e437786d1461051c576100dd565b8063a6f9dae114610429578063b0a398ab1461047a578063b69ef8a8146104a5576100dd565b806338bbfa50116100bb57806338bbfa50146102415780635ec01e4d146103aa578063893d20e8146103c857806390df205d1461041f576100dd565b806312065fe0146100e257806327851dd41461010d57806327dc297e1461016f575b600080fd5b3480156100ee57600080fd5b506100f7610585565b6040518082815260200191505060405180910390f35b6101596004803603604081101561012357600080fd5b81019080803573ffffffffffffffffffffffffffffffffffffffff1690602001909291908035906020019092919050505061058f565b6040518082815260200191505060405180910390f35b34801561017b57600080fd5b5061023f6004803603604081101561019257600080fd5b8101908080359060200190929190803590602001906401000000008111156101b957600080fd5b8201836020820111156101cb57600080fd5b803590602001918460018302840111640100000000831117156101ed57600080fd5b91908080601f016020809104026020016040519081016040528093929190818152602001838380828437600081840152601f19601f820116905080830192505050505050509192919290505050610817565b005b34801561024d57600080fd5b506103a86004803603606081101561026457600080fd5b81019080803590602001909291908035906020019064010000000081111561028b57600080fd5b82018360208201111561029d57600080fd5b803590602001918460018302840111640100000000831117156102bf57600080fd5b91908080601f016020809104026020016040519081016040528093929190818152602001838380828437600081840152601f19601f8201169050808301925050505050505091929192908035906020019064010000000081111561032257600080fd5b82018360208201111561033457600080fd5b8035906020019184600183028401116401000000008311171561035657600080fd5b91908080601f016020809104026020016040519081016040528093929190818152602001838380828437600081840152601f19601f82011690508083019250505050505050919291929050505061085a565b005b6103b2610bf0565b6040518082815260200191505060405180910390f35b3480156103d457600080fd5b506103dd610d2d565b604051808273ffffffffffffffffffffffffffffffffffffffff1673ffffffffffffffffffffffffffffffffffffffff16815260200191505060405180910390f35b610427610d56565b005b34801561043557600080fd5b506104786004803603602081101561044c57600080fd5b81019080803573ffffffffffffffffffffffffffffffffffffffff169060200190929190505050610eba565b005b34801561048657600080fd5b5061048f61103a565b6040518082815260200191505060405180910390f35b3480156104b157600080fd5b506104ba611062565b6040518082815260200191505060405180910390f35b3480156104dc57600080fd5b506104e5611068565b6040518082815260200191505060405180910390f35b34801561050757600080fd5b506105106110af565b005b61051a61129a565b005b34801561052857600080fd5b5061056b6004803603602081101561053f57600080fd5b81019080803573ffffffffffffffffffffffffffffffffffffffff16906020019092919050505061161b565b604051808215151515815260200191505060405180910390f35b6000600754905090565b60008033604051602001808273ffffffffffffffffffffffffffffffffffffffff1673ffffffffffffffffffffffffffffffffffffffff1660601b81526014019150506040516020818303038152906040528051906020012090506105f26136a3565b84816000019073ffffffffffffffffffffffffffffffffffffffff16908173ffffffffffffffffffffffffffffffffffffffff1681525050838160200181815250506001600654111561069b576009546007600082825403925050819055508473ffffffffffffffffffffffffffffffffffffffff166108fc6009549081150290604051600060405180830381858888f19350505050158015610699573d6000803e3d6000fd5b505b6008543073ffffffffffffffffffffffffffffffffffffffff1631101561070d576040517f08c379a000000000000000000000000000000000000000000000000000000000815260040180806020018281038252604f8152602001806138eb604f913960600191505060405180910390fd5b6008543073ffffffffffffffffffffffffffffffffffffffff16310360078190555080600a600084815260200190815260200160002060008201518160000160006101000a81548173ffffffffffffffffffffffffffffffffffffffff021916908373ffffffffffffffffffffffffffffffffffffffff1602179055506020820151816001015590505061080c826040518060400160405280600181526020017f31000000000000000000000000000000000000000000000000000000000000008152506040518060400160405280600481526020017f746573740000000000000000000000000000000000000000000000000000000081525061085a565b819250505092915050565b610856828260006040519080825280601f01601f1916602001820160405280156108505781602001600182028038833980820191505090505b5061085a565b5050565b61086261163b565b73ffffffffffffffffffffffffffffffffffffffff163373ffffffffffffffffffffffffffffffffffffffff161461089957600080fd5b60006002836040516020018082805190602001908083835b602083106108d457805182526020820191506020810190506020830392506108b1565b6001836020036101000a0380198251168184511680821785525050505050509050019150506040516020818303038152906040528051906020012060001c8161091957fe5b0690506000806060600a600088815260200190815260200160002060000160009054906101000a900473ffffffffffffffffffffffffffffffffffffffff169250600a600088815260200190815260200160002060010154915060018414156109c5576109888360018461195b565b6040518060400160405280600881526020017f596f752077696e210000000000000000000000000000000000000000000000008152509050610a0a565b6109d18360008461195b565b6040518060400160405280601481526020017f596f75206c6f73742c2074727920616761696e2100000000000000000000000081525090505b6000600b60008573ffffffffffffffffffffffffffffffffffffffff1673ffffffffffffffffffffffffffffffffffffffff16815260200190815260200160002060006101000a81548160ff0219169083151502179055507fc13d60fe9dffdb6908d2d446cd18134373a51db0738ee04f296eeb9128121cbc846040518082815260200191505060405180910390a17ff04ecaccc6f60f9a5bb47b34ae0f6b6d40100f93162c7024e9d10a5178647edb83604051808273ffffffffffffffffffffffffffffffffffffffff1673ffffffffffffffffffffffffffffffffffffffff16815260200191505060405180910390a17f0274605274f0e611638bb81540fddab21c617584f5b74deb9f648b83e56dfd828782600c60008773ffffffffffffffffffffffffffffffffffffffff1673ffffffffffffffffffffffffffffffffffffffff168152602001908152602001600020546040518084815260200180602001838152602001828103825284818151815260200191508051906020019080838360005b83811015610bab578082015181840152602081019050610b90565b50505050905090810190601f168015610bd85780820380516001836020036101000a031916815260200191505b5094505050505060405180910390a150505050505050565b600080600090506000610c07826001600954611a8b565b905060016006541115610c27576009546007600082825403925050819055505b600854343073ffffffffffffffffffffffffffffffffffffffff1631011015610c9b576040517f08c379a000000000000000000000000000000000000000000000000000000000815260040180806020018281038252604f8152602001806138eb604f913960600191505060405180910390fd5b6008543073ffffffffffffffffffffffffffffffffffffffff1631036007819055507f94f2559b5e2b297de3db1587daf2352e872ada3dad01dab9ee3733592fa22ed360405180806020018281038252601b8152602001807f42657420706c616365642c206177616974696e6720726573756c74000000000081525060200191505060405180910390a1809250505090565b60008060009054906101000a900473ffffffffffffffffffffffffffffffffffffffff16905090565b6000809054906101000a900473ffffffffffffffffffffffffffffffffffffffff1673ffffffffffffffffffffffffffffffffffffffff163373ffffffffffffffffffffffffffffffffffffffff1614610e18576040517f08c379a00000000000000000000000000000000000000000000000000000000081526004018080602001828103825260138152602001807f43616c6c6572206973206e6f74206f776e65720000000000000000000000000081525060200191505060405180910390fd5b66038d7ea4c6800080341015610e2d57600080fd5b34600760008282540192505081905550610e45612026565b7fc6a90f9711f675cf39da5b255f163fc88427dd82b4253052e9a5db243be05d3760075460405180806020018381526020018281038252600f8152602001807f436f6e7472616374204c6f6164656400000000000000000000000000000000008152506020019250505060405180910390a150565b6000809054906101000a900473ffffffffffffffffffffffffffffffffffffffff1673ffffffffffffffffffffffffffffffffffffffff163373ffffffffffffffffffffffffffffffffffffffff1614610f7c576040517f08c379a00000000000000000000000000000000000000000000000000000000081526004018080602001828103825260138152602001807f43616c6c6572206973206e6f74206f776e65720000000000000000000000000081525060200191505060405180910390fd5b8073ffffffffffffffffffffffffffffffffffffffff166000809054906101000a900473ffffffffffffffffffffffffffffffffffffffff1673ffffffffffffffffffffffffffffffffffffffff167f342827c97908e5e2f71151c08502a66d44b6f758e3ac2f1de95f02eb95f0a73560405160405180910390a3806000806101000a81548173ffffffffffffffffffffffffffffffffffffffff021916908373ffffffffffffffffffffffffffffffffffffffff16021790555050565b6000806007543073ffffffffffffffffffffffffffffffffffffffff16310390508091505090565b60075481565b6000600c60003373ffffffffffffffffffffffffffffffffffffffff1673ffffffffffffffffffffffffffffffffffffffff16815260200190815260200160002054905090565b6000600c60003373ffffffffffffffffffffffffffffffffffffffff1673ffffffffffffffffffffffffffffffffffffffff1681526020019081526020016000205490506000600c60003373ffffffffffffffffffffffffffffffffffffffff1673ffffffffffffffffffffffffffffffffffffffff16815260200190815260200160002081905550806008600082825403925050819055503373ffffffffffffffffffffffffffffffffffffffff166108fc829081150290604051600060405180830381858888f1935050505015801561118e573d6000803e3d6000fd5b50611197612026565b6000600c60003373ffffffffffffffffffffffffffffffffffffffff1673ffffffffffffffffffffffffffffffffffffffff168152602001908152602001600020541461122f576040517f08c379a00000000000000000000000000000000000000000000000000000000081526004018080602001828103825260268152602001806138176026913960400191505060405180910390fd5b7fba13b66ea15140f9b6bef76174849d8566611c4068a2436dce48483fd4c7c42860405180806020018281038252601e8152602001807f42616c616e6365207375636365737366756c6c792077697468647261776e000081525060200191505060405180910390a150565b60001515600b60003373ffffffffffffffffffffffffffffffffffffffff1673ffffffffffffffffffffffffffffffffffffffff16815260200190815260200160002060009054906101000a900460ff16151514611343576040517f08c379a000000000000000000000000000000000000000000000000000000000815260040180806020018281038252603181526020018061387b6031913960400191505060405180910390fd5b66038d7ea4c680003410156113a3576040517f08c379a00000000000000000000000000000000000000000000000000000000081526004018080602001828103825260258152602001806137ba6025913960400191505060405180910390fd5b3460075410156113fe576040517f08c379a00000000000000000000000000000000000000000000000000000000081526004018080602001828103825260388152602001806137df6038913960400191505060405180910390fd5b600060016006600082825401925050819055506001600654111561144a57600954340390508060086000828254019250508190555060095460076000828254019250508190555061145e565b349050806008600082825401925050819055505b8060076000828254039250508190555080600860008282540192505081905550611486612026565b6001600b60003373ffffffffffffffffffffffffffffffffffffffff1673ffffffffffffffffffffffffffffffffffffffff16815260200190815260200160002060006101000a81548160ff0219169083151502179055506114e66136a3565b33816000019073ffffffffffffffffffffffffffffffffffffffff16908173ffffffffffffffffffffffffffffffffffffffff1681525050818160200181815250506000611532610bf0565b905081600a600083815260200190815260200160002060008201518160000160006101000a81548173ffffffffffffffffffffffffffffffffffffffff021916908373ffffffffffffffffffffffffffffffffffffffff160217905550602082015181600101559050507f98a860f2df59036e3e7b09a5077622e6c7cbd31092f62e75b019c8a80c6155f68160075460405180806020018481526020018381526020018281038252601b8152602001807f42657420706c616365642c206177616974696e6720726573756c740000000000815250602001935050505060405180910390a1505050565b600b6020528060005260406000206000915054906101000a900460ff1681565b60008073ffffffffffffffffffffffffffffffffffffffff16600260009054906101000a900473ffffffffffffffffffffffffffffffffffffffff1673ffffffffffffffffffffffffffffffffffffffff1614806116c3575060006116c1600260009054906101000a900473ffffffffffffffffffffffffffffffffffffffff1661209d565b145b156116d4576116d260006120a8565b505b600260009054906101000a900473ffffffffffffffffffffffffffffffffffffffff1673ffffffffffffffffffffffffffffffffffffffff166338cc48316040518163ffffffff1660e01b8152600401602060405180830381600087803b15801561173e57600080fd5b505af1158015611752573d6000803e3d6000fd5b505050506040513d602081101561176857600080fd5b810190808051906020019092919050505073ffffffffffffffffffffffffffffffffffffffff16600160009054906101000a900473ffffffffffffffffffffffffffffffffffffffff1673ffffffffffffffffffffffffffffffffffffffff16146118b357600260009054906101000a900473ffffffffffffffffffffffffffffffffffffffff1673ffffffffffffffffffffffffffffffffffffffff166338cc48316040518163ffffffff1660e01b8152600401602060405180830381600087803b15801561183757600080fd5b505af115801561184b573d6000803e3d6000fd5b505050506040513d602081101561186157600080fd5b8101908080519060200190929190505050600160006101000a81548173ffffffffffffffffffffffffffffffffffffffff021916908373ffffffffffffffffffffffffffffffffffffffff1602179055505b600160009054906101000a900473ffffffffffffffffffffffffffffffffffffffff1673ffffffffffffffffffffffffffffffffffffffff1663c281d19e6040518163ffffffff1660e01b815260040160206040518083038186803b15801561191b57600080fd5b505afa15801561192f573d6000803e3d6000fd5b505050506040513d602081101561194557600080fd5b8101908080519060200190929190505050905090565b6001151582151514156119bd5760028102600c60008573ffffffffffffffffffffffffffffffffffffffff1673ffffffffffffffffffffffffffffffffffffffff168152602001908152602001600020600082825401925050819055506119e4565b60028102600860008282540392505081905550600281026007600082825401925050819055505b600c60008473ffffffffffffffffffffffffffffffffffffffff1673ffffffffffffffffffffffffffffffffffffffff168152602001908152602001600020546008541015611a7e576040517f08c379a000000000000000000000000000000000000000000000000000000000815260040180806020018281038252603e81526020018061383d603e913960400191505060405180910390fd5b611a86612026565b505050565b60008083118015611a9d575060208311155b611aa657600080fd5b600a84029350606060016040519080825280601f01601f191660200182016040528015611ae25781602001600182028038833980820191505090505b5090508360f81b81600081518110611af657fe5b60200101907effffffffffffffffffffffffffffffffffffffffffffffffffffffffffffff1916908160001a905350606060206040519080825280601f01601f191660200182016040528015611b5b5781602001600182028038833980820191505090505b509050606060206040519080825280601f01601f191660200182016040528015611b945781602001600182028038833980820191505090505b5090506000611ba16120b9565b905060208352424118600143034018602084015260208252806020830152606060206040519080825280601f01601f191660200182016040528015611bf55781602001600182028038833980820191505090505b509050886020820152606060086040519080825280601f01601f191660200182016040528015611c345781602001600182028038833980820191505090505b509050611c4782601860088460006123d9565b50611c506136d3565b60405180608001604052808781526020018881526020018681526020018481525090506000611cb56040518060400160405280600681526020017f72616e646f6d0000000000000000000000000000000000000000000000000000815250838c612438565b9050606060086040519080825280601f01601f191660200182016040528015611ced5781602001600182028038833980820191505090505b50905060208401517f0100000000000000000000000000000000000000000000000000000000000000810460278301537e01000000000000000000000000000000000000000000000000000000000000810460268301537d010000000000000000000000000000000000000000000000000000000000810460258301537c0100000000000000000000000000000000000000000000000000000000810460248301537b01000000000000000000000000000000000000000000000000000000810460238301537a010000000000000000000000000000000000000000000000000000810460228301537901000000000000000000000000000000000000000000000000008104602183015378010000000000000000000000000000000000000000000000008104602083015350612013828285600160048110611e2c57fe5b6020020151600287600060048110611e4057fe5b60200201516040518082805190602001908083835b60208310611e785780518252602082019150602081019050602083039250611e55565b6001836020036101000a038019825116818451168082178552505050505050905001915050602060405180830381855afa158015611eba573d6000803e3d6000fd5b5050506040513d6020811015611ecf57600080fd5b810190808051906020019092919050505087600260048110611eed57fe5b60200201516040516020018085805190602001908083835b60208310611f285780518252602082019150602081019050602083039250611f05565b6001836020036101000a03801982511681845116808217855250505050505090500184805190602001908083835b60208310611f795780518252602082019150602081019050602083039250611f56565b6001836020036101000a03801982511681845116808217855250505050505090500183815260200182805190602001908083835b60208310611fd05780518252602082019150602081019050602083039250611fad565b6001836020036101000a038019825116818451168082178552505050505050905001945050505050604051602081830303815290604052805190602001206127a7565b8199505050505050505050509392505050565b3073ffffffffffffffffffffffffffffffffffffffff1631600754600854011461209b576040517f08c379a000000000000000000000000000000000000000000000000000000000815260040180806020018281038252603f8152602001806138ac603f913960400191505060405180910390fd5b565b6000813b9050919050565b60006120b26127c3565b9050919050565b60008073ffffffffffffffffffffffffffffffffffffffff16600260009054906101000a900473ffffffffffffffffffffffffffffffffffffffff1673ffffffffffffffffffffffffffffffffffffffff1614806121415750600061213f600260009054906101000a900473ffffffffffffffffffffffffffffffffffffffff1661209d565b145b156121525761215060006120a8565b505b600260009054906101000a900473ffffffffffffffffffffffffffffffffffffffff1673ffffffffffffffffffffffffffffffffffffffff166338cc48316040518163ffffffff1660e01b8152600401602060405180830381600087803b1580156121bc57600080fd5b505af11580156121d0573d6000803e3d6000fd5b505050506040513d60208110156121e657600080fd5b810190808051906020019092919050505073ffffffffffffffffffffffffffffffffffffffff16600160009054906101000a900473ffffffffffffffffffffffffffffffffffffffff1673ffffffffffffffffffffffffffffffffffffffff161461233157600260009054906101000a900473ffffffffffffffffffffffffffffffffffffffff1673ffffffffffffffffffffffffffffffffffffffff166338cc48316040518163ffffffff1660e01b8152600401602060405180830381600087803b1580156122b557600080fd5b505af11580156122c9573d6000803e3d6000fd5b505050506040513d60208110156122df57600080fd5b8101908080519060200190929190505050600160006101000a81548173ffffffffffffffffffffffffffffffffffffffff021916908373ffffffffffffffffffffffffffffffffffffffff1602179055505b600160009054906101000a900473ffffffffffffffffffffffffffffffffffffffff1673ffffffffffffffffffffffffffffffffffffffff1663abaa5f3e6040518163ffffffff1660e01b815260040160206040518083038186803b15801561239957600080fd5b505afa1580156123ad573d6000803e3d6000fd5b505050506040513d60208110156123c357600080fd5b8101908080519060200190929190505050905090565b60606000828501905080845110156123f057600080fd5b600086602001905060008460200190505b8688602001018210156124295781890151808288015250602082019150602081019050612401565b85935050505095945050505050565b60008073ffffffffffffffffffffffffffffffffffffffff16600260009054906101000a900473ffffffffffffffffffffffffffffffffffffffff1673ffffffffffffffffffffffffffffffffffffffff1614806124c0575060006124be600260009054906101000a900473ffffffffffffffffffffffffffffffffffffffff1661209d565b145b156124d1576124cf60006120a8565b505b600260009054906101000a900473ffffffffffffffffffffffffffffffffffffffff1673ffffffffffffffffffffffffffffffffffffffff166338cc48316040518163ffffffff1660e01b8152600401602060405180830381600087803b15801561253b57600080fd5b505af115801561254f573d6000803e3d6000fd5b505050506040513d602081101561256557600080fd5b810190808051906020019092919050505073ffffffffffffffffffffffffffffffffffffffff16600160009054906101000a900473ffffffffffffffffffffffffffffffffffffffff1673ffffffffffffffffffffffffffffffffffffffff16146126b057600260009054906101000a900473ffffffffffffffffffffffffffffffffffffffff1673ffffffffffffffffffffffffffffffffffffffff166338cc48316040518163ffffffff1660e01b8152600401602060405180830381600087803b15801561263457600080fd5b505af1158015612648573d6000803e3d6000fd5b505050506040513d602081101561265e57600080fd5b8101908080519060200190929190505050600160006101000a81548173ffffffffffffffffffffffffffffffffffffffff021916908373ffffffffffffffffffffffffffffffffffffffff1602179055505b606060046040519080825280602002602001820160405280156126e757816020015b60608152602001906001900390816126d25790505b509050836000600481106126f757fe5b60200201518160008151811061270957fe5b60200260200101819052508360016004811061272157fe5b60200201518160018151811061273357fe5b60200260200101819052508360026004811061274b57fe5b60200201518160028151811061275d57fe5b60200260200101819052508360036004811061277557fe5b60200201518160038151811061278757fe5b602002602001018190525061279d858285612d1a565b9150509392505050565b8060046000848152602001908152602001600020819055505050565b6000806127e3731d3b2638a7cc9f2cb3d298a3da7a90b67e5506ed61209d565b111561288557731d3b2638a7cc9f2cb3d298a3da7a90b67e5506ed600260006101000a81548173ffffffffffffffffffffffffffffffffffffffff021916908373ffffffffffffffffffffffffffffffffffffffff16021790555061287c6040518060400160405280600b81526020017f6574685f6d61696e6e6574000000000000000000000000000000000000000000815250613280565b60019050612d17565b60006128a473c03a2615d5efaf5f49f60b7bb6583eaec212fdf161209d565b11156129465773c03a2615d5efaf5f49f60b7bb6583eaec212fdf1600260006101000a81548173ffffffffffffffffffffffffffffffffffffffff021916908373ffffffffffffffffffffffffffffffffffffffff16021790555061293d6040518060400160405280600c81526020017f6574685f726f707374656e330000000000000000000000000000000000000000815250613280565b60019050612d17565b600061296573b7a07bcf2ba2f2703b24c0691b5278999c59ac7e61209d565b1115612a075773b7a07bcf2ba2f2703b24c0691b5278999c59ac7e600260006101000a81548173ffffffffffffffffffffffffffffffffffffffff021916908373ffffffffffffffffffffffffffffffffffffffff1602179055506129fe6040518060400160405280600981526020017f6574685f6b6f76616e0000000000000000000000000000000000000000000000815250613280565b60019050612d17565b6000612a2673146500cfd35b22e4a392fe0adc06de1a1368ed4861209d565b1115612ac85773146500cfd35b22e4a392fe0adc06de1a1368ed48600260006101000a81548173ffffffffffffffffffffffffffffffffffffffff021916908373ffffffffffffffffffffffffffffffffffffffff160217905550612abf6040518060400160405280600b81526020017f6574685f72696e6b656279000000000000000000000000000000000000000000815250613280565b60019050612d17565b6000612ae773a2998efd205fb9d4b4963afb70778d6354ad3a4161209d565b1115612b895773a2998efd205fb9d4b4963afb70778d6354ad3a41600260006101000a81548173ffffffffffffffffffffffffffffffffffffffff021916908373ffffffffffffffffffffffffffffffffffffffff160217905550612b806040518060400160405280600a81526020017f6574685f676f65726c6900000000000000000000000000000000000000000000815250613280565b60019050612d17565b6000612ba8736f485c8bf6fc43ea212e93bbf8ce046c7f1cb47561209d565b1115612c0c57736f485c8bf6fc43ea212e93bbf8ce046c7f1cb475600260006101000a81548173ffffffffffffffffffffffffffffffffffffffff021916908373ffffffffffffffffffffffffffffffffffffffff16021790555060019050612d17565b6000612c2b7320e12a1f859b3feae5fb2a0a32c18f5a65555bbf61209d565b1115612c8f577320e12a1f859b3feae5fb2a0a32c18f5a65555bbf600260006101000a81548173ffffffffffffffffffffffffffffffffffffffff021916908373ffffffffffffffffffffffffffffffffffffffff16021790555060019050612d17565b6000612cae7351efaf4c8b3c9afbd5ab9f4bbc82784ab6ef8faa61209d565b1115612d12577351efaf4c8b3c9afbd5ab9f4bbc82784ab6ef8faa600260006101000a81548173ffffffffffffffffffffffffffffffffffffffff021916908373ffffffffffffffffffffffffffffffffffffffff16021790555060019050612d17565b600090505b90565b60008073ffffffffffffffffffffffffffffffffffffffff16600260009054906101000a900473ffffffffffffffffffffffffffffffffffffffff1673ffffffffffffffffffffffffffffffffffffffff161480612da257506000612da0600260009054906101000a900473ffffffffffffffffffffffffffffffffffffffff1661209d565b145b15612db357612db160006120a8565b505b600260009054906101000a900473ffffffffffffffffffffffffffffffffffffffff1673ffffffffffffffffffffffffffffffffffffffff166338cc48316040518163ffffffff1660e01b8152600401602060405180830381600087803b158015612e1d57600080fd5b505af1158015612e31573d6000803e3d6000fd5b505050506040513d6020811015612e4757600080fd5b810190808051906020019092919050505073ffffffffffffffffffffffffffffffffffffffff16600160009054906101000a900473ffffffffffffffffffffffffffffffffffffffff1673ffffffffffffffffffffffffffffffffffffffff1614612f9257600260009054906101000a900473ffffffffffffffffffffffffffffffffffffffff1673ffffffffffffffffffffffffffffffffffffffff166338cc48316040518163ffffffff1660e01b8152600401602060405180830381600087803b158015612f1657600080fd5b505af1158015612f2a573d6000803e3d6000fd5b505050506040513d6020811015612f4057600080fd5b8101908080519060200190929190505050600160006101000a81548173ffffffffffffffffffffffffffffffffffffffff021916908373ffffffffffffffffffffffffffffffffffffffff1602179055505b6000600160009054906101000a900473ffffffffffffffffffffffffffffffffffffffff1673ffffffffffffffffffffffffffffffffffffffff16632ef3accc86856040518363ffffffff1660e01b81526004018080602001838152602001828103825284818151815260200191508051906020019080838360005b8381101561302957808201518184015260208101905061300e565b50505050905090810190601f1680156130565780820380516001836020036101000a031916815260200191505b509350505050602060405180830381600087803b15801561307657600080fd5b505af115801561308a573d6000803e3d6000fd5b505050506040513d60208110156130a057600080fd5b81019080805190602001909291905050509050823a02670de0b6b3a7640000018111156130d3576000801b915050613279565b60606130de8561329a565b9050600160009054906101000a900473ffffffffffffffffffffffffffffffffffffffff1673ffffffffffffffffffffffffffffffffffffffff1663c55c1cb68360008985896040518663ffffffff1660e01b8152600401808581526020018060200180602001848152602001838103835286818151815260200191508051906020019080838360005b83811015613183578082015181840152602081019050613168565b50505050905090810190601f1680156131b05780820380516001836020036101000a031916815260200191505b50838103825285818151815260200191508051906020019080838360005b838110156131e95780820151818401526020810190506131ce565b50505050905090810190601f1680156132165780820380516001836020036101000a031916815260200191505b5096505050505050506020604051808303818588803b15801561323857600080fd5b505af115801561324c573d6000803e3d6000fd5b50505050506040513d602081101561326357600080fd5b8101908080519060200190929190505050925050505b9392505050565b80600390805190602001906132969291906136fa565b5050565b60606132a461331a565b6132ac61377a565b6132b881610400613326565b6132c181613370565b60008090505b8351811015613303576132f68482815181106132df57fe5b60200260200101518361337e90919063ffffffff16565b80806001019150506132c7565b5061330d816133a3565b8060000151915050919050565b60405180590338823950565b600081905060006020828161333757fe5b0614613350576020818161334757fe5b06602003810190505b808360200181815250506040518084526000815281810160405250505050565b61337b8160046133b1565b50565b61338b82600283516133d2565b61339e818361351290919063ffffffff16565b505050565b6133ae8160076133b1565b50565b6133ce601f60058360ff16901b17836135bd90919063ffffffff16565b5050565b601781116133fe576133f98160058460ff16901b60ff1617846135bd90919063ffffffff16565b61350d565b60ff811161343f57613423601860058460ff16901b17846135bd90919063ffffffff16565b613439816001856135fd9092919063ffffffff16565b5061350c565b61ffff811161348157613465601960058460ff16901b17846135bd90919063ffffffff16565b61347b816002856135fd9092919063ffffffff16565b5061350b565b63ffffffff81116134c5576134a9601a60058460ff16901b17846135bd90919063ffffffff16565b6134bf816004856135fd9092919063ffffffff16565b5061350a565b67ffffffffffffffff8111613509576134f1601b60058460ff16901b17846135bd90919063ffffffff16565b613507816008856135fd9092919063ffffffff16565b505b5b5b5b5b505050565b61351a61377a565b8260200151836000015151835101111561354a5761354983600261354386602001518651613664565b02613680565b5b60008060008451905085518051602081830101945086518101825260208701935050505b60208110613591578151835260208301925060208201915060208103905061356e565b60006001826020036101000a039050801983511681855116818117865250508694505050505092915050565b816020015160018360000151510111156135e3576135e2826002846020015102613680565b5b815180516020818301018381536001820183525050505050565b61360561377a565b8360200151846000015151830111156136335761363284600261362c876020015186613664565b02613680565b5b60006001836101000a0390508451805184818301018684198251161781528582018352505050849150509392505050565b6000818311156136765782905061367a565b8190505b92915050565b6060826000015190506136938383613326565b61369d8382613512565b50505050565b6040518060400160405280600073ffffffffffffffffffffffffffffffffffffffff168152602001600081525090565b60405180608001604052806004905b60608152602001906001900390816136e25790505090565b828054600181600116156101000203166002900490600052602060002090601f016020900481019282601f1061373b57805160ff1916838001178555613769565b82800160010185558215613769579182015b8281111561376857825182559160200191906001019061374d565b5b5090506137769190613794565b5090565b604051806040016040528060608152602001600081525090565b6137b691905b808211156137b257600081600090555060010161379a565b5090565b9056fe596f75206e65656420746f2073656e64206174206c6561737420302e30303120457468657254686520636f6e74726163742062616c616e63652069736e2774206869676820656e6f75676820746f20706c6163652074686973206265744572726f723a20557365722062616c616e636520686173206e6f74206265656e2072657365744572726f723a20557365722062616c616e636520697320686967686572207468616e20746f74616c20617661696c61626c6520666f72207061796f757473596f752063616e6e6f7420706c616365206120626574207768656e2077616974696e6720666f72206120726573756c74214572726f723a20436f6e74726163742062616c616e636520646f65736e2774206d617463682062616c616e6365206f6e2074686520626c6f636b636861696e4572726f723a2054686572652773206d6f72652062616c616e636520636f6d6d697474656420666f72207061796f757473207468616e20697320617661696c61626c65206f6e20636f6e7472616374a265627a7a72315820369aeff18869fbc30b82b7c2c10ecfff1f6e409ba75e0a59a14f2ff0c851ced464736f6c634300050c00324572726f723a20436f6e74726163742062616c616e636520646f65736e2774206d617463682062616c616e6365206f6e2074686520626c6f636b636861696e",
  "source": "\r\nimport \"./Owner.sol\";\r\npragma solidity 0.5.12;\r\nimport \"./ProvableAPI.sol\";\r\n\r\n\r\ncontract betDapp is Owner, usingProvable{\r\n\r\n\r\n    uint betCounter=0;\r\n    uint public balance;\r\n    uint private committedBalance;\r\n    struct outstandingBet{ //Every time a user flips, it will be recorded in this struct with their ETH address and the balance outstanding.\r\n        address payable userAddress;\r\n        uint betAmount;\r\n    }\r\n\r\n    uint256 constant NUM_RANDOM_BYTES_REQUESTED = 1;\r\n    uint256 GAS_FOR_CALLBACK=200000;\r\n\r\n    mapping (bytes32 => outstandingBet) private results;\r\n    mapping(address => bool) public  waiting;\r\n    mapping(address=>uint) private userBalance;\r\n\r\n    event betResult(bytes32 queryID, string res, uint newBalance);\r\n    event load(string loadAmount, uint newBalance);\r\n    event betConfirmation(string conf, bytes32 ID, uint newBalance);\r\n    event logNewProvableQuery(string description);\r\n    event generatedRandomNumber(uint256 randomNumber);\r\n    event gamblerAddres(address whoCalled);\r\n    event userWithdrawal(string message);\r\n    //event balanceCommitted(uint256 committedToBets);\r\n\r\n    modifier topUp(uint minTopUp){\r\n        require(msg.value>=minTopUp);\r\n        _;\r\n    }\r\n\r\n    constructor() payable public {\r\n        balance+=msg.value;\r\n        checkBalance();\r\n        emit load(\"Contract Loaded\", balance);\r\n    }\r\n\r\n    function __callback(bytes32 _queryId,string memory _result, bytes memory _proof) public{\r\n    require(msg.sender==provable_cbAddress()); //only the oracle can call this function\r\n\r\n    uint256 randomNumber = uint256(keccak256(abi.encodePacked(_result))) %2;\r\n\r\n    //randomNumber=now%2;\r\n\r\n    address payable user;\r\n    uint amountToPay;\r\n    string memory result;\r\n\r\n    user=results[_queryId].userAddress;\r\n    amountToPay=results[_queryId].betAmount;\r\n\r\n        if(randomNumber==1){\r\n            updateBalance(user,true,amountToPay);\r\n\r\n            result=\"You win!\";\r\n        }\r\n        else{\r\n            updateBalance(user,false,amountToPay);\r\n            result=\"You lost, try again!\";\r\n        }\r\n\r\n    waiting[user]=false;\r\n    emit generatedRandomNumber(randomNumber);\r\n    emit gamblerAddres(user);\r\n    emit betResult(_queryId,result,userBalance[user]); //This is the event to listen to on Web3 with the queryID, result of the bet, and the new user Balance.\r\n\r\n    }\r\n\r\n    function updateBalance(address payable user, bool addToUser, uint amount) private{\r\n        if(addToUser==true){\r\n            userBalance[user]+=amount*2; //If the user wins the bet, their account gets credited with the bet amount times two, so they double their money. No further action required as the funds are already in CommittedBalance\r\n        }\r\n        else{\r\n        committedBalance-=amount*2; //If the user loses the bet, the funds are taking out of CommittedBalance and into Balance.\r\n        balance+=amount*2;\r\n        }\r\n        require(committedBalance>=userBalance[user], \"Error: User balance is higher than total available for payouts\");\r\n        checkBalance();\r\n\r\n    }\r\n\r\n\r\n    function random() payable public returns(bytes32){\r\n        uint256 QUERY_EXECUTION_DELAY=0;\r\n\r\n        bytes32 betID=provable_newRandomDSQuery( //This returns an id, apparently. Confirmed, all calls to this library return a query ID.\r\n            QUERY_EXECUTION_DELAY,\r\n            NUM_RANDOM_BYTES_REQUESTED,\r\n            GAS_FOR_CALLBACK\r\n            );\r\n        if(betCounter>1){\r\n        balance-=GAS_FOR_CALLBACK;\r\n        }\r\n\r\n        require(address(this).balance+msg.value>=committedBalance,\"Error: There's more balance committed for payouts than is available on contract\");\r\n        balance=address(this).balance-committedBalance; //This will deduct the cost of placing the call to the oracle from the balance\r\n\r\n        emit logNewProvableQuery(\"Bet placed, awaiting result\");\r\n        return betID;\r\n\r\n    }\r\n\r\n    function testRandom(address payable whoCalled, uint256 whatAmount) payable public returns(bytes32){\r\n        bytes32 _queryId=bytes32(keccak256(abi.encodePacked(msg.sender)));\r\n\r\n        outstandingBet memory testBet;\r\n\r\n        testBet.userAddress=whoCalled;\r\n        testBet.betAmount=whatAmount;\r\n\r\n\r\n        if(betCounter>1){\r\n            balance-=GAS_FOR_CALLBACK;\r\n            whoCalled.transfer(GAS_FOR_CALLBACK);\r\n        }\r\n\r\n        require(address(this).balance>=committedBalance,\"Error: There's more balance committed for payouts than is available on contract\");\r\n        balance=address(this).balance-committedBalance; //This will deduct the cost of placing the call to the oracle from the balance\r\n\r\n        results[_queryId]=testBet;\r\n        __callback(_queryId,\"1\",bytes(\"test\"));\r\n        return _queryId;\r\n    }\r\n\r\n    function getBalance() view public returns (uint){\r\n        return balance;\r\n    }\r\n\r\n    function getCommitted() view public returns (uint){\r\n        uint256 toBets;\r\n        toBets=address(this).balance-balance;\r\n        return toBets;\r\n    }\r\n\r\n    function getUserBalance() view public returns (uint){\r\n        return userBalance[msg.sender];\r\n    }\r\n\r\n      function withdrawUserBalance() public{\r\n        uint toWithdraw=userBalance[msg.sender];\r\n\r\n        userBalance[msg.sender]=0;\r\n        committedBalance-=toWithdraw;\r\n        msg.sender.transfer(toWithdraw);\r\n\r\n        checkBalance();\r\n        require(userBalance[msg.sender]==0,\"Error: User balance has not been reset\");\r\n\r\n        emit userWithdrawal(\"Balance successfully withdrawn\");\r\n\r\n    }\r\n\r\n    function flip() payable public{\r\n        require(waiting[msg.sender]==false, \"You cannot place a bet when waiting for a result!\");\r\n        require(msg.value>=0.001 ether, \"You need to send at least 0.001 Ether\");\r\n        require(balance>=msg.value, \"The contract balance isn't high enough to place this bet\");\r\n\r\n        uint realBet;\r\n\r\n        betCounter+=1;\r\n\r\n        if(betCounter>1){ //The first bet is free, the others cost gas which we take out of the better.\r\n        realBet=msg.value-GAS_FOR_CALLBACK;\r\n        committedBalance+=realBet; //And it is also added to the balance of the contract as committed. The cost is deduced and added to the contract balance.\r\n        balance+=GAS_FOR_CALLBACK;\r\n        }\r\n        else{\r\n        realBet=msg.value;\r\n        committedBalance+=realBet;\r\n        }\r\n\r\n        balance-=realBet;\r\n        committedBalance+=realBet; //When placing a bet, the potential profit will be reserved in CommittedBalance. This makes sure the 'balance' will always reflect the amount available for additional bets.\r\n\r\n        checkBalance();\r\n\r\n        waiting[msg.sender]=true;\r\n\r\n        outstandingBet memory newBet;\r\n\r\n        newBet.userAddress=msg.sender;\r\n        newBet.betAmount=realBet;\r\n\r\n        bytes32 betID=random();\r\n        //bytes32 betID=testRandom(newBet.userAddress,newBet.betAmount);\r\n\r\n        results[betID]=newBet;\r\n        emit betConfirmation(\"Bet placed, awaiting result\", betID, balance);\r\n\r\n\r\n    }\r\n\r\n    function checkBalance() private view{\r\n        require(committedBalance+balance==address(this).balance, \"Error: Contract balance doesn't match balance on the blockchain\");\r\n    }\r\n\r\n    function loadContract() payable public isOwner topUp(0.001 ether){\r\n        balance+=msg.value;\r\n        checkBalance();\r\n        emit load(\"Contract Loaded\", balance);\r\n    }\r\n\r\n}\r\n",
  "sourcePath": "C:/Users/JMV/Dropbox/Ethereum Course Advanced/CoinFlip/contracts/betDapp.sol",
  "compiler": {
    "name": "solc",
    "version": "0.5.12+commit.7709ece9.Emscripten.clang"
  },
  "schemaVersion": "3.0.16",
  "updatedAt": "2020-07-30T21:17:51.461Z",
  "devdoc": {
    "methods": {
      "__callback(bytes32,string)": {
        "details": "The following `__callback` functions are just placeholders ideally     meant to be defined in child contract when proofs are used.     The function bodies simply silence compiler warnings."
      },
      "changeOwner(address)": {
        "details": "Change owner",
        "params": {
          "newOwner": "address of new owner"
        }
      },
      "getOwner()": {
        "details": "Return owner address",
        "return": "address of owner"
      }
    }
  },
  "userdoc": {
    "methods": {}
  }
}